:1000E600C0F9A4B0999282F880908883C6A1868EC2
:1000F60011121418212224284142444881828488FE
:10010600FA15FA67FB04FB90FC0CFC44FCACFD09F9
:10011600FD34FD82FDC8FE06FE22FE56FE85FE9AD1
:030003000108FFF2
:10018D00EF1FAA0670011E4A600BE4FDEDC39478C3
:05019D0050EE0D80F79B
:0101A200223A
:10009A007590F0E59064F060407F057E0012018D56
:1000AA00E59064F060337FFEE4FE8F90E59054F0B3
:1000BA0064F06017E590F4FDE4FCEC9000F693B56B
:1000CA000503AF04220CBC10F1800A7801EF088006
:0B00DA000123D8FDFF0EBE04D17FFF04
:0100E50022F8
:03000B00020126C9
:10012600C0E0C083C082C0D075D000C004C005C086
:1001360007E50825E02406F582E43401F583E49317
:10014600FC740193FDECF58CAF058F8AB2B0D00735
:0D015600D005D004D0D0D082D083D0E032CC
:100163007580BF75890175A88212009A8F08E5080A
:10017300F4600CEF9000E693F4F580D28C8002C219
:0A0183008C7F027E0012018D80DFE8
:0300000002000EED
:0C000E00787FE4F6D8FD758108020055EB
:10001A00020163E493A3F8E493A34003F68001F298
:10002A0008DFF48029E493A3F85407240CC8C333E7
:10003A00C4540F4420C8834004F456800146F6DFB6
:10004A00E4800B0102040810204080900003E47E43
:10005A00019360BCA3FF543F30E509541FFEE493AB
:10006A00A360010ECF54C025E060A840B8E493A372
:10007A00FAE493A3F8E493A3C8C582C8CAC583CA9D
:10008A00F0A3C8C582C8CAC583CADFE9DEE780BE55
:0100060000F9
:00000001FF
