:10094F00C0F9A4B0999282F88090FFC0CFA4868B93
:06095F009290C78082FFA8
:0700030001170002080000D4
:10066E00C2A0D2A1D2A2D2A3E50B90094F93F580DE
:10067E007F057E001206B1D2A0C2A1D2A2D2A3E5FE
:10068E000C932480F5807F057E001206B1D2A0D295
:10069E00A1C2A2D2A3E50D90095A932480F5807FC2
:0306AE00057E00C6
:1006B100EF1FAA0670011E4A600BE4FDEDC394789A
:0506C10050EE0D80F772
:0106C6002211
:1004340020A52530A5FDC28C0517E517B4030DE5ED
:100444001E60097B007A00790F12084BE517B4058A
:1004540007E4F517F51ED28C20A44D30A4FD751EBB
:1004640001E51714603714602814601314703905FB
:1004740010E51075F03C8485F019851118800E057F
:1004840011E51175F0188485F01885101975160199
:10049400220510E51075F03C8485F010220511E565
:0904A4001175F0188485F0112295
:10060400E4FF12076D7C007D05120232AC06AD07D3
:10061400E41201297B087A3D797B783F12001E128F
:1006240001628E1C8F1D1206AD7F1012076D7C00B7
:100634007D05120232AC06AD07E41201297B087A6B
:100644003D797B783F12001E1201628E1A8F1BC304
:100654007488951BFF7413951AFE7C007D14120296
:0A066400448FB07F057E000206B14E
:1006C700E51175F00A84F50BE51175F00A8485F0DC
:1006D7000CE51075F00A84F50DE51075F00A8485B0
:1006E700F00EC2A0D2A1D2A2D2A3E50B90094F93DC
:1006F700F580D28712067ED2A0D2A1D2A2C2A3E5EC
:100707000E90094F93F580E5166004C28EC28712DA
:0507170006ADD28E22A8
:10059400E51175F00A84F50BE51175F00A8485F010
:1005A4000CE51075F00A84F50DE51075F00A8485E4
:1005B400F00EE4FC12066ED2A0D2A1D2A2C2A3E530
:1005C4000E90094F931206AB0CBC0CE8E4FCC2A0DD
:1005D400D2A1D2A2D2A37580FF1206ADD2A0C2A12D
:1005E400D2A2D2A375807F120694D2A0D2A1D2A2A5
:0F05F400C2A3E50E90094F931206AB0CBC06CFC5
:0106030022D4
:1003B700E51175F00A84F50BE51175F00A8485F0EF
:1003C7000CE51075F00A84F50DE51075F00A8485C3
:1003D700F00EE4FC12066ED2A0D2A1D2A2C2A3E50F
:1003E7000E90094F931206AB0CBC0CE8E4FCC2A0BC
:1003F700D2A1D2A2D2A3E50B90094F931206ABD29A
:10040700A0C2A1D2A2D2A3E50C1206A8D2A0D2A163
:10041700C2A2D2A375807F1206ADD2A0D2A1D2A26A
:0C042700C2A37580FF1206AD0CBC06C21B
:0104330022A6
:1004AD00E51175F00A84F50BE51175F00A8485F0F8
:1004BD000CE51075F00A84F50DE51075F00A8485CC
:1004CD00F00EE4FC12066ED2A0D2A1D2A2C2A3C23B
:1004DD008EE50E90094F1206A8D28E0CBC0CE5E4E9
:1004ED00FCC2A0D2A1D2A2D2A37580FF1206ADD2BA
:1004FD00A0C2A1D2A2D2A375807F120694D2A0D29F
:10050D00A1D2A2C2A3C28EE50E90094F1206A8D2A7
:05051D008E0CBC06CCB1
:0105220022B6
:10033300E51175F00A84F50BE51175F00A8485F073
:100343000CE51075F00A84F50DE51075F00A848547
:10035300F00EE4FC12066ED2A0D2A1D2A2C2A3C2B6
:100363008EE50E90094F1206A8D28E0CBC0CE5E464
:10037300FCC2A0D2A1D2A2D2A3E50B90094F931243
:1003830006ABD2A0C2A1D2A2D2A3E50C1206A8D278
:10039300A0D2A1C2A2D2A375807F1206ADD2A0D2F1
:1003A300A1D2A2C2A3C28E75807F1206ADD28E0CDB
:0303B300BC06BEC7
:0103B6002224
:10052300AE1CAF1D7C037DE8120244AB07AE1CAFCB
:100533001D7C037DE81202447E007F64CFCDCFCEC5
:10054300CCCE120244AC07C28EC2A0D2A1D2A2D298
:10055300A3AF03EF90094F93F580D2871206ADD274
:10056300A0C2A1D2A2D2A3AF04EF931206ABD2A032
:10057300D2A1C2A2D2A37580F0C2871206ADD2A0C7
:10058300D2A1D2A2C2A37580FFD2871206ADD28EAA
:010593002245
:10080600E5166020E519B5101BE518B51116E517B4
:100816007012E50A700EC2A67F707E171206B1D25C
:10082600A6E4F516E511D394074019E5119417507F
:1008360013E510700FE50F700BC2A67FB87E0B1282
:0508460006B1D2A6225C
:10088E00E517601814601214600C14600614702CB6
:10089E000203330204AD0203B7020594E50AD394B2
:1008AE00054006E50A940A400DE50AD39423400953
:0D08BE00E50A942850030205231206C72204
:1008CB00E4F517F516F51ED2A675B0C8758901D2D9
:1008DB00AFD2ABD2A9758C3C758AB0758DFC758B7C
:1008EB001CD28CD28E120434120806120604120883
:0308FB008E80F2FA
:03000B0002071CCD
:10071C00C0E0C0F0C083C082C0D075D000C000C0A3
:10072C0001C002C003C004C005C006C007C28C755E
:10073C008C3C758AB0E517700BFB7A00790F1209A7
:10074C0027850F0AD28CD007D006D005D004D00351
:10075C00D002D001D000D0D0D082D083D0F0D0E065
:01076C00325A
:03001B000207BA1F
:0B07BA00C0E0C0D075D000C006C00732
:1007C500C28E758DFC758B1C0509E509700205083F
:1007D500FFAE08BE2709BF10067508007509003071
:1007E500A10320A20FC3E5099470E50894175004EE
:0807F500C2878002D287D28E78
:0907FD00D007D006D0D0D0E032C4
:10096500E4FEEF139295D296C296EFC313FF0EBE27
:0209750008F088
:01097700225D
:1008FE00E4FEFDA295E433FFA80508800123D8FD90
:10090E004206D296C2960DBD08E9EEC4540F75F09C
:08091E000AA4FFEE540F2FFFA5
:0109260022AE
:10097800C297C296D2971209651208FED296C297FC
:01098800224C
:10098900C296D297120965AF05120965C296C29738
:01099900223B
:060927008B1F8A208921CC
:10092D00752281E4FCAF22120978AB1FAA20A92100
:10093D008C82758300EF120210052205220CBC0774
:01094D00E4C5
:01094E002286
:06084B008B238A2489259D
:10085100E4FD7F8E1209897C01EC25E02480FFAB49
:1008610023AA24A9258C827583001201E3FE75F069
:100871000A84C454F0FDEE75F00A84E5F04DFD12D2
:0D08810009890CBC07D37D807F8E02098998
:02076D00A907DA
:10076F00E4FBE4F523F524AD01D294D292C292C2F8
:10077F0093FA309003432401ED339291D293C293B5
:10078F00ED25E0FDE52425E0F524E52333F5230AE7
:10079F00BA0ADF0BBB03CBD2923094FDE523C31310
:0A07AF00F523E52413F524AE23FF23
:0107B900221D
:10001E00EC4D6011E8497017ED33EC3304600DE4DC
:10002E00FCFFFEFD22E933E8330470F80201CE1224
:10003E00019958046009E4CC248150062850090225
:10004E0001D82840030201D5C0E0EB4A7044B980C4
:10005E0006D0E0FB0201C4EF4E701CBD8008EBFF22
:10006E00EAFEE9FD80EBE98DF0A4FEE5F002010762
:10007E00E9CDF9EAFEEBFFEF89F0A4FCE5F0CE89BD
:10008E00F0A42EFFE435F0CD89F0A42DFEE435F07A
:10009E008067EF4E7005BD80D780C3EF8BF0A4ACA8
:1000AE00F0EE8BF0A42CFCE435F0F8EF8AF0A42CE3
:1000BE00E5F038FCE433CB8DF0A42CFCE5F03BF8F6
:1000CE00EE8AF0A42CFCE5F038F8E433CF89F0A4E6
:1000DE002CFCE5F038CF3400CE89F0A42FFFE5F0EC
:1000EE003EFEE433C98DF0A42EFEE5F039CD8AF044
:1000FE00A42FFFE5F03EFEE43DFD33D0E0FB5007BC
:10010E000BBB000F0201D8EC2CFCEF33FFEE33FEDD
:06011E00ED33FD0201B00B
:1001240075F020800E75F010800575F0087D007E56
:10013400007F003392D530D503120299EC3340107E
:10014400EF33FFEE33FEED33FDEC33FCD5F0ED225F
:0E015400E5F0247EA2D513CC92E7CDCEFF229B
:10016200EDD2E7CD33EC3392D524814006E4FFFE95
:10017200FDFC22FCE4CFCECDCC24E0501174FF80F4
:10018200EDC3CC13CCCD13CDCE13CECF13CF047091
:07019200F030D5DE020299F6
:10019900E9D2E7C933E833F892D5EDD2E7CD33ECAC
:0701A90033FC5002B2D52225
:1001B000EC30E7100FBF000C0EBE00080DBD0004B0
:1001C0000BEB6014A2D5EB13FCED92E7FD2274FF5C
:1001D000FCFDFEFF22E480F8A2D574FF13FC7D80B5
:0301E000E480EFC9
:030000000202A752
:0C02A700787FE4F6D8FD7581250202EE98
:1001E300BB010CE58229F582E5833AF583E02250D1
:1001F30006E92582F8E622BBFE06E92582F8E2221B
:0D020300E58229F582E5833AF583E4932234
:10021000F8BB010DE58229F582E5833AF583E8F024
:10022000225006E92582C8F622BBFE05E92582C8D0
:02023000F222B8
:10023200EF8DF0A4A8F0CF8CF0A428CE8DF0A42EE0
:02024200FE229A
:10024400BC000BBE0029EF8DF084FFADF022E4CC9E
:10025400F875F008EF2FFFEE33FEEC33FCEE9DEC67
:10026400984005FCEE9DFE0FD5F0E9E4CEFD22EDAD
:10027400F8F5F0EE8420D21CFEADF075F008EF2FF7
:10028400FFED33FD4007985006D5F0F222C398FDE8
:050294000FD5F0EA2285
:0E029900C3E49FFFE49EFEE49DFDE49CFC2276
:1002B3000208CBE493A3F8E493A34003F68001F28E
:1002C30008DFF48029E493A3F85407240CC8C3334C
:1002D300C4540F4420C8834004F456800146F6DF1B
:1002E300E4800B0102040810204080900003E47EA8
:1002F300019360BCA3FF543F30E509541FFEE49310
:10030300A360010ECF54C025E060A840B8E493A3D6
:10031300FAE493A3F8E493A3C8C582C8CAC583CA01
:10032300F0A3C8C582C8CAC583CADFE9DEE780BEB9
:01000A0000F5
:00000001FF
