:0C01C500C2A1C2A28C80D2A27F017E00E9
:1001D100EF1FAA0670011E4A600BE4FDEDC394787F
:0501E10050EE0D80F757
:0101E60022F6
:0B020900C2A0D2A11201CBAF80C2A2A4
:0102140022C7
:1001E700AC07120209EF20E7F9C2A01201C5C2A2AB
:0101F70022E5
:1001F800AC07120209EF20E7F9D2A01201C5C2A28A
:0102080022D3
:1001A1007F381201E71201CD7F011201E71201CD63
:1001B1007F061201E71201CD7F0C1201E77F017E5C
:0401C100000201D166
:0A012E008F088D098B0A8A0B890CDB
:10013800E4F50DE5097008E5084480FF1201E7E5DC
:1001480009B40108E50844C0FF1201E7E4F50DAB66
:100158000AAA0BA90C850D82758300120174FF127F
:0B01680001F8050DE50DC3941040E404
:010173002269
:1000DC00596F7520617265207072657373696E67F4
:1000EC00004B657920312020202020004B657920A1
:1000FC00322020202020004B657920332020202026
:10010C0020005052455353204B312D2D4B3320544E
:10011C004F2053544152542044454D4F2050524F80
:02012C0047008A
:100003001201A17BFF7A01790EE4FDFF12012E7B21
:10001300FF7A01791E7D01E4FF12012E20B03B120D
:1000230001A17BFF7A0079DCE4FDFF12012E7BFF47
:100033007A0079ED7D017F0612012E30B0FD1201A9
:10004300A17BFF7A01790EE4FDFF12012E7BFF7A7B
:1000530001791E7D01E4FF12012E20B13B1201A1A3
:100063007BFF7A0079DCE4FDFF12012E7BFF7A002F
:1000730079F87D017F0612012E30B1FD1201A17BBB
:10008300FF7A01790EE4FDFF12012E7BFF7A0179DD
:100093001E7D01E4FF12012E20B2811201A17BFF1C
:1000A3007A0079DCE4FDFF12012E7BFF7A017903EC
:1000B3007D017F0612012E30B2FD1201A17BFF7A72
:1000C30001790EE4FDFF12012E7BFF7A01791E7D7B
:0900D30001E4FF12012E02001FDE
:03000000020215E4
:0C021500787FE4F6D8FD75810D0200032F
:10017400BB010CE58229F582E5833AF583E0225040
:1001840006E92582F8E622BBFE06E92582F8E2228A
:0D019400E58229F582E5833AF583E49322A4
:00000001FF
