:0606F500040800000000F3
:0406B300AB07AA06E1
:1006B700EB7802C333CE33CED8F9FBAA06C2B17D9D
:1006C7000BC2B074017E00A805088005C333CE3382
:1006D700CED8F9FFEE5AFEEF5B4E24FF92B2D2B0AE
:0D06E7001DC3ED6480948050D8C2B0D2B124
:0106F40022E3
:10064200D2B1750C01750D2CAF0BAE0AAD09AC0819
:100652007B0A7AD77923783C12000A8F0B8E0A8D97
:10066200098C087FC37EF57DC87C40AB0BAA0AA922
:1006720009A8081202014009E4F50BF50AF509F58B
:1006820008AF0BAE0AAD09AC081204A6E4FBFA7976
:100692004878431200FB12026E8E0E8F0FE50F2573
:1006A2000DF50DE50E350CF50CAF0DFE1206B380FF
:0106B20091B6
:100003000202DAE86480F8E933E83360110460F04F
:10001300ED33EC337009E8FCE9FDEAFEEBFF220463
:1000230060DED3EB9FEA9EE99DE8C2E78CF0C2F75E
:1000330095F0400CE8CCF8E9CDF9EACEFAEBCFFB2A
:100043001202A585D0F05804700320D5B3E80470DC
:10005300075002B2D50202E492D5EC0460F7E4CC77
:10006300C0E0C398F8603B94186008400DD0E0FBF3
:100073000202BCE4FBFAC9FC8028E830E406E4C9C8
:10008300FBE4CAFCE830E305E4C9CACBFCE8540747
:100093006010F8C3E913F9EA13FAEB13FBEC13FC52
:1000A300D8F130F52FC3E49CFCEF9BFFEE9AFEEDF5
:1000B30099FDD0E0FBEF4E4D4C701222DB030202A0
:1000C300E1EC2CFCEF33FFEE33FEED33FDED30E7D7
:1000D300EB0202BCEF2BFFEE3AFEED39FDD0E0FB65
:1000E30050130BBB00030202E4ED13FDEE13FEEF0E
:0800F30013FFEC13FC0202BC38
:1000FB00EC4D6011E8497017ED33EC3304600DE4FF
:10010B00FCFFFEFD22E933E8330470F80202DA1239
:10011B0002A558046009E4CC24815006285009023A
:10012B0002E42840030202E1C0E0EB4A7044B980CC
:10013B0006D0E0FB0202D0EF4E701CBD8008EBFF37
:10014B00EAFEE9FD80EBE98DF0A4FEE5F00201E4A7
:10015B00E9CDF9EAFEEBFFEF89F0A4FCE5F0CE89DF
:10016B00F0A42EFFE435F0CD89F0A42DFEE435F09C
:10017B008067EF4E7005BD80D780C3EF8BF0A4ACCA
:10018B00F0EE8BF0A42CFCE435F0F8EF8AF0A42C05
:10019B00E5F038FCE433CB8DF0A42CFCE5F03BF818
:1001AB00EE8AF0A42CFCE5F038F8E433CF89F0A408
:1001BB002CFCE5F038CF3400CE89F0A42FFFE5F00E
:1001CB003EFEE433C98DF0A42EFEE5F039CD8AF066
:1001DB00A42FFFE5F03EFEE43DFD33D0E0FB5007DE
:1001EB000BBB000F0202E4EC2CFCEF33FFEE33FEF3
:0601FB00ED33FD0202BC21
:1002010074F8CC6480CCC86480C8F582046043C3B0
:10021100EB9FF5F0EA9E42F0E99D42F0E89C45F043
:1002210060305018E5825FFFE582F42B5582FB5068
:10023100210ABA001D09B90019088016E5825BFB85
:10024100E582F42F5582FF50090EBE00050DBD0059
:10025100010CC3EB9FF5F0EA9E42F0E99D42F0E804
:0D0261009C45F06007CC4820E701B3EC227B
:10026E00EDD2E7CD33EC3392D524814006E4FFFE88
:10027E00FDFC22FCE4CFCECDCC24E0501174FF80E7
:10028E00EDC3CC13CCCD13CDCE13CECF13CF047084
:07029E00F030D5DE02041A66
:100448003A70FA83BCAAE9E43E81E0F8BF9DE9E688
:100458003F80000039283C1ABB9969663DA335E303
:10046800BF255DE73FC90FDB418DDBCCC44936EEC4
:1004780045C9913FC5B0F83D3F800000C317F5342A
:10048800452FFA73C60AFDDD12053704A2E1920072
:100498001420E01590044874041203CD8026120538
:1004A8003730E102B20020E0EB8C108D118E128FF4
:1004B8001390045C74041203CDA810A911AA12ABFE
:1004C800131200FBED4C6007300004EC6480FC2242
:1004D800120537C0E08C108D118E128F1390048096
:1004E80074031203CDA810A911AA12AB131200FBB2
:1004F800ECC510FCEDC511FDEEC512FEEFC513FFEE
:1005080090047074031203CDD082A810A911AA1206
:10051800AB13E58230E0071202F2B20080A6EFCBFF
:10052800FFEECAFEEDC9FDECC8FC1202F28095EDA3
:1005380033EC547FCC33920024605007D0E0D0E0F5
:100548000202DA7B837AF97922783E1200FBEDF910
:1005580033ECF83324815011EFFBEEFA12026E12DD
:10056800038FECB2E7FC12000AED33EC33602F2462
:1005780003F8C313FCED92E7FDE82481E4501FEC77
:10058800F8EDF9EEFAEFFB12026EEF04C2E0FCF5AB
:1005980082120399ECB2E7FC12000AE58203FAED35
:0E05A80033EC3360071413FCED92E7FDEA22FA
:1002A500E9D2E7C933E833F892D5EDD2E7CD33EC9F
:0702B50033FC5002B2D52218
:1002BC00EC30E7100FBF000C0EBE00080DBD0004A3
:1002CC000BEB6014A2D5EB13FCED92E7FD2274FF4F
:1002DC00FCFDFEFF22E480F8A2D574FF13FC7D80A8
:0302EC00E480EFBC
:1002EF000202E4EC5D046005E8590470030202DACF
:1002FF001202A5580460F6EC4860F2EC7004FDFEA3
:10030F00FF22C860DB2481C85009C39860025006E1
:10031F000202E19850CAF582E9294B4A7005AB8277
:10032F000202D075F0007C1A7880C3EF9BEE9AED35
:10033F0099400DC3EF9BFFEE9AFEED99FDE842F059
:10034F00DC23ACF0D0E0FFD0E0FED0E0FDAB8220AC
:10035F00E7101BEB60BAEC2CFCEF33FFEE33FEED36
:10036F0033FD0202BCE803F830E705C0F075F0007A
:10037F00EF2FFFEE33FEED33FD40B830E7C280AA1A
:10038F0075F020800E75F010800575F0087D007EE9
:10039F00007F003392D530D50312041AEC3340108E
:1003AF00EF33FFEE33FEED33FDEC33FCD5F0ED22F2
:0E03BF00E5F0247EA2D513CC92E7CDCEFF222E
:1003CD00C0E0EFFBEEFAEDF9ECF81200FBD0E0F532
:1003DD00F0EFFBEEFAEDF9ECF8120428A3A3A3A3BA
:1003ED00E8C0E0E9C0E0EAC0E0EBC0E0C0F0120018
:1003FD00FB120438A3A3A3A312000AD0F0D0E0FB94
:0D040D00D0E0FAD0E0F9D0E0F8D5F0D4222C
:030000000205B640
:0C05B600787FE4F6D8FD7581200205FD79
:0E041A00C3E49FFFE49EFEE49DFDE49CFC22F3
:10042800E493FC740193FD740293FE740393FF221A
:10043800E493F8740193F9740293FA740393FB221A
:1005C200020642E493A3F8E493A34003F68001F207
:1005D20008DFF48029E493A3F85407240CC8C3333A
:1005E200C4540F4420C8834004F456800146F6DF09
:1005F200E4800B01020408102040809006F5E47E9E
:10060200019360BCA3FF543F30E509541FFEE493FD
:10061200A360010ECF54C025E060A840B8E493A3C4
:10062200FAE493A3F8E493A3C8C582C8CAC583CAEF
:10063200F0A3C8C582C8CAC583CADFE9DEE780BEA7
:0106FB0000FE
:00000001FF
