:03000000020CAC43
:0C0CAC00787FE4F6D8FD758136020B78E5
:100A8800536F6D656F6E65206B6E6F636B696E6714
:100A9800002020202020202020202020202020206E
:100AA800200053797374656D205374617274696E94
:100AB800672000506C6561736520776169742E202A
:100AC8002020200000E2E5E8E9ECEEF0F1F2F5F68E
:100AD800F7F800040D0A140308060217051A0104A2
:100AE8000301020301010203010304050304055481
:100AF800656D707572653A000000000000000056D0
:0F0B08006973746F72733A000000000000000000
:0A0991008E288F298B2A8A2B892CCF
:10099B00C3E528648094805016742D1208F6AE2897
:1009AB00AF297CFF7DFF12092A8E318F328011AB6C
:1009BB002AAA2BA92C74201208F6852831852932F6
:1009CB00AE31AF327C037DE812093C8F30AE31AFD4
:1009DB00327C037DE812093C7E007F64CFCDCFCE05
:1009EB00CCCE12093C8F2FAE31AF327C007D64121E
:1009FB00093C7E007F0ACFCDCFCECCCE12093C8FE7
:100A0B002EAE31AF327C007D0A12093C8D2DE530C4
:100A1B002430AB2AAA2BA92C900001120908E52F30
:100A2B002430900002120908E52E243090000312A6
:100A3B000908900004742E120908E52D243090004B
:100A4B000512090890000674DF120908900007745C
:100A5B0043120908E530700EAB2AAA2BA92C900083
:100A6B00017420120908E5307012E52F700EAB2AC5
:0C0A7B00AA2BA92C90000274201209087C
:010A8700224C
:100C2300AF33EF75F00A84F528EF75F00A8485F089
:100C33002974201208F6E5282430900001120908CF
:100C4300E5292430900002120908E5287008900075
:060C5300017420120908E3
:010C59002278
:100B170020A75D30A7FDAF330533EFD394634003C0
:100B2700E4F533D28CE4F508E4F509308C327BFF29
:100B37007A0A79887D01E4FF120000E509900AE945
:100B470093F5347F2C7E011200007BFF7A0A799996
:100B57007D01E4FF1200000509E509C3940E40CBAF
:100B67000508E508C3940240BFC28C30B702C2B77C
:010B7700225B
:100C5A001200008E358F36E53645357007120000D2
:100C6A008E358F36E536453570071200008E358F82
:020C7A00362220
:100BCE0078087C007D007BFF7A0A79F77E007F1023
:100BDE001208D078187C007D007BFF7A0B79077E97
:100BEE00007F101208D07B007A007910AF36AE3538
:100BFE001209917B007A007908E4FDFF1200007B58
:100C0E00007A007920AF33120C237A0079187D0117
:050C1E00E4FF020000EC
:100B7800C2B775A882E4F589D2A8D288C28CF533A9
:100B88001200007BFF7A0A79AAE4FDFF1200007BBD
:100B9800FF7A0A79BB7D01E4FF12000012000012FF
:100BA80000008E358F361200008E358F367FB87E66
:100BB8000B120000120B17120C5A120BCE7F647E18
:060BC8000012000080EEA7
:03000B00020C7C68
:100C7C00C0E0C083C082B2B7E534900ACC93F58C47
:0F0C8C00E534900ADA93F58AD082D083D0E03233
:03000300020C9B51
:100C9B00C0E0308C02C28CE5336003753300D0E0CA
:010CAB003216
:10080000E709F608DFFA8046E709F208DFFA803EDA
:1008100088828C83E709F0A3DFFA8032E309F608C7
:10082000DFFA8078E309F208DFFA807088828C832F
:10083000E309F0A3DFFA806489828A83E0A3F608E3
:10084000DFFA805889828A83E0A3F208DFFA804CBD
:1008500080D280FA80C680D4806980F28033801094
:1008600080A680EA809A80A880DA80E280CA8033FD
:1008700089828A83ECFAE493A3C8C582C8CCC58375
:10088000CCF0A3C8C582C8CCC583CCDFE9DEE78045
:100890000D89828A83E493A3F608DFF9ECFAA9F0C4
:1008A000EDFB2289828A83ECFAE0A3C8C582C8CC1A
:1008B000C583CCF0A3C8C582C8CCC583CCDFEADE33
:1008C000E880DB89828A83E493A3F208DFF980CC95
:1008D00088F0EF60010E4E60C388F0ED2402B4048E
:1008E0000050B9F582EB2402B4040050AF23234535
:0608F00082239008507302
:1008F600BB010689828A83F0225002F722BBFE01E1
:02090600F322DA
:10090800F8BB010DE58229F582E5833AF583E8F025
:10091800225006E92582C8F622BBFE05E92582C8D1
:02092800F222B9
:10092A00EF8DF0A4A8F0CF8CF0A428CE8DF0A42EE1
:02093A00FE229B
:10093C00BC000BBE0029EF8DF084FFADF022E4CC9F
:10094C00F875F008EF2FFFEE33FEEC33FCEE9DEC68
:10095C00984005FCEE9DFE0FD5F0E9E4CEFD22EDAE
:10096C00F8F5F0EE8420D21CFEADF075F008EF2FF8
:10097C00FFED33FD4007985006D5F0F222C398FDE9
:05098C000FD5F0EA2286
:00000001FF
