:0A0112003F065B4F666D7D077F6FAF
:0700E90093F5807F037E0008
:1000F000EF1FAA0670011E4A600BE4FDEDC3947861
:0501000050EE0D80F738
:0101050022D7
:10000E00EF75F064A4FFAEF07C007D3312006FAB91
:10001E0007AA067C007D6412006F8F087C007D0AA3
:10002E00AF03AE0212006F7C007D0A12006F8D09C5
:10003E00AE02AF037C007D0A12006F8D0A75A0F729
:10004E00E50A9001121200E975A0FBE5091200E91C
:10005E0075A0FDE50893F580D2877F027E00020031
:01006E00F0A1
:1000C400758902758CFF758AFF75A882D28C75902C
:1000D4003FC292D292C2923091FDD290AFB0120040
:0500E4000EC29080EC4B
:03000B00020003ED
:03000300B2933283
:03000000020106F4
:0C010600787FE4F6D8FD75810A0200C481
:10006F00BC000BBE0029EF8DF084FFADF022E4CC75
:10007F00F875F008EF2FFFEE33FEEC33FCEE9DEC3E
:10008F00984005FCEE9DFE0FD5F0E9E4CEFD22ED84
:10009F00F8F5F0EE8420D21CFEADF075F008EF2FCE
:1000AF00FFED33FD4007985006D5F0F222C398FDBF
:0500BF000FD5F0EA225C
:00000001FF
