:0A0099003F065B4F666D7D077F6F29
:0D008000E4F508F50912000312006980F88C
:10004B00EF1FAA0670011E4A6013E4FCFDC3ED947A
:0D005B0078EC940050EA0DBD00010C80F01F
:010068002275
:1000030020A0257F0A7E0012004B20A01B30A0FDFC
:10001300E509150970021508E509B4FF0BE508B4F5
:10002300FF0675080075090920A11C7F0A7E0012CE
:10003300004B30A1FD0509E50970020508640A4576
:08004300087004F508F509221C
:1000690074992509F58274003508F583E493F590B0
:070079007F057E0002004B31
:0300000002008D6E
:0C008D00787FE4F6D8FD75810902008040
:00000001FF
