:10007900FEFDFBF7EFDFBF7F00003E4141413E003F
:1000890000000000217F0100000027454545390097
:10009900000022494949360000000C14247F04005D
:1000A9000000725151514E0000003E494949260055
:1000B90000004040404F7000000036494949360071
:0800C9000000324949493E00E4
:1000D100758901758CF4758A48D28CD2A9D2AF800A
:0100E100FE20
:03000B0002000EE2
:10000E00C0E0C0F0C083C082C0D0758CF4758A4841
:10001E00E50890007993F5B0E50975F008A4248100
:10002E00F582E43400F583E5822508F582E4358314
:10003E00F583E493F5800508E508B4080375080018
:10004E00050BE50B7002050AB44D15E50AB4011057
:10005E00750A00750B000509E509B40A0375090058
:0B006E00D0D0D082D083D0F0D0E032A0
:030000000200E219
:0C00E200787FE4F6D8FD75810B0200D198
:00000001FF
