:10060F00EF1FAA0670011E4A600BE4FDEDC3940CA8
:05061F0050EE0D80F714
:0106240022B3
:10062500907FFFE4F07F14FE12060F74FFF07F1435
:050635007E0002060F2B
:10063A007FFFEFD39400400AAE071F907FFFEEF0D2
:02064A0080F03E
:01064C00228B
:1005EC00E4FFEFC394FF500AAE070F907FFFEEF0CD
:1005FC0080F0EFD39400400AAE071F907FFFEEF01F
:02060C0080F07C
:01060E0022C9
:1005BC007C96ECD39400400AAF041C907FFFEFF0C4
:1005CC0080F07F1E7E0012060FECC39496500AAF8B
:1005DC00040C907FFFEFF080F07F1E7E0002060F70
:10054C00E4F508AC08E412020E7B497A9D79007838
:10055C003D1200FE12043CE4FBFA79FA78421200D8
:10056C00FEE4FBFA79FA784212000D120242907FF7
:0C057C00FFEFF00508E508C394C840C775
:010588002250
:10058900E4F50DD288D2AFD2A8E50DB40103120665
:1005990025E50DB4020312063AE50DB4030312056D
:1005A900ECE50DB404031205BCE50DB405DB120539
:0305B9004C80D69D
:0300030002064DA5
:10064D00C0E0C0D0050DE50DB40603750D01D0D089
:03065D00D0E032B8
:100006000202AEE86480F8E933E83360110460F078
:10001600ED33EC337009E8FCE9FDEAFEEBFF220460
:1000260060DED3EB9FEA9EE99DE8C2E78CF0C2F75B
:1000360095F0400CE8CCF8E9CDF9EACEFAEBCFFB27
:1000460012027985D0F05804700320D5B3E8047005
:10005600075002B2D50202B892D5EC0460F7E4CCA0
:10006600C0E0C398F8603B94186008400DD0E0FBF0
:10007600020290E4FBFAC9FC8028E830E406E4C9F1
:10008600FBE4CAFCE830E305E4C9CACBFCE8540744
:100096006010F8C3E913F9EA13FAEB13FBEC13FC4F
:1000A600D8F130F52FC3E49CFCEF9BFFEE9AFEEDF2
:1000B60099FDD0E0FBEF4E4D4C701222DB0302029D
:1000C600B5EC2CFCEF33FFEE33FEED33FDED30E700
:1000D600EB020290EF2BFFEE3AFEED39FDD0E0FB8E
:1000E60050130BBB00030202B8ED13FDEE13FEEF37
:0800F60013FFEC13FC02029061
:1000FE00EC4D6011E8497017ED33EC3304600DE4FC
:10010E00FCFFFEFD22E933E8330470F80202AE1262
:10011E00027958046009E4CC248150062850090263
:10012E0002B82840030202B5C0E0EB4A7044B98021
:10013E0006D0E0FB0202A4EF4E701CBD8008EBFF60
:10014E00EAFEE9FD80EBE98DF0A4FEE5F00201E7A1
:10015E00E9CDF9EAFEEBFFEF89F0A4FCE5F0CE89DC
:10016E00F0A42EFFE435F0CD89F0A42DFEE435F099
:10017E008067EF4E7005BD80D780C3EF8BF0A4ACC7
:10018E00F0EE8BF0A42CFCE435F0F8EF8AF0A42C02
:10019E00E5F038FCE433CB8DF0A42CFCE5F03BF815
:1001AE00EE8AF0A42CFCE5F038F8E433CF89F0A405
:1001BE002CFCE5F038CF3400CE89F0A42FFFE5F00B
:1001CE003EFEE433C98DF0A42EFEE5F039CD8AF063
:1001DE00A42FFFE5F03EFEE43DFD33D0E0FB5007DB
:1001EE000BBB000F0202B8EC2CFCEF33FFEE33FE1C
:0601FE00ED33FD0202904A
:1002040075F020800E75F010800575F0087D007E75
:10021400007F003392D530D5031203B0EC33401085
:10022400EF33FFEE33FEED33FDEC33FCD5F0ED227E
:0E023400E5F0247EA2D513CC92E7CDCEFF22BA
:10024200EDD2E7CD33EC3392D524814006E4FFFEB4
:10025200FDFC22FCE4CFCECDCC24E0501174FF8013
:10026200EDC3CC13CCCD13CDCE13CECF13CF0470B0
:07027200F030D5DE0203B0FD
:1003DE003A70FA83BCAAE9E43E81E0F8BF9DE9E6F3
:1003EE003F80000039283C1ABB9969663DA335E36E
:1003FE00BF255DE73FC90FDB418DDBCCC44936EE2F
:10040E0045C9913FC5B0F83D3F800000C317F53494
:10041E00452FFA73C60AFDDD1204CD04A2E1920047
:10042E001420E0159003DE74041203638026120478
:10043E00CD30E102B20020E0EB8C098D0A8E0B8FDD
:10044E000C9003F27404120363A809A90AAA0BAB59
:10045E000C1200FEED4C6007300004EC6480FC22B0
:10046E001204CDC0E08C098D0A8E0B8F0C900416F1
:10047E007403120363A809A90AAA0BAB0C1200FE9F
:10048E00ECC509FCEDC50AFDEEC50BFEEFC50CFF74
:10049E009004067403120363D082A809A90AAA0B5A
:1004AE00AB0CE58230E0071202C6B20080A6EFCB9D
:1004BE00FFEECAFEEDC9FDECC8FC1202C68095ED3A
:1004CE0033EC547FCC33920024605007D0E0D0E060
:1004DE000202AE7B837AF97922783E1200FEEDF9A4
:1004EE0033ECF83324815011EFFBEEFA1202421274
:1004FE000204ECB2E7FC12000DED33EC33602F2456
:10050E0003F8C313FCED92E7FDE82481E4501FECE1
:10051E00F8EDF9EEFAEFFB120242EF04C2E0FCF541
:10052E008212020EECB2E7FC12000DE58203FAED28
:0E053E0033EC3360071413FCED92E7FDEA2264
:10027900E9D2E7C933E833F892D5EDD2E7CD33ECCB
:0702890033FC5002B2D52244
:10029000EC30E7100FBF000C0EBE00080DBD0004CF
:1002A0000BEB6014A2D5EB13FCED92E7FD2274FF7B
:1002B000FCFDFEFF22E480F8A2D574FF13FC7D80D4
:0302C000E480EFE8
:1002C3000202B8EC5D046005E8590470030202AE53
:1002D300120279580460F6EC4860F2EC7004FDFEFB
:1002E300FF22C860DB2481C85009C398600250060E
:1002F3000202B59850CAF582E9294B4A7005AB82D0
:100303000202A475F0007C1A7880C3EF9BEE9AED8D
:1003130099400DC3EF9BFFEE9AFEED99FDE842F085
:10032300DC23ACF0D0E0FFD0E0FED0E0FDAB8220D8
:10033300E7101BEB60BAEC2CFCEF33FFEE33FEED62
:1003430033FD020290E803F830E705C0F075F000D2
:10035300EF2FFFEE33FEED33FD40B830E7C280AA46
:10036300C0E0EFFBEEFAEDF9ECF81200FED0E0F599
:10037300F0EFFBEEFAEDF9ECF81203BEA3A3A3A38F
:10038300E8C0E0E9C0E0EAC0E0EBC0E0C0F0120082
:10039300FE1203CEA3A3A3A312000DD0F0D0E0FB63
:0D03A300D0E0FAD0E0F9D0E0F8D5F0D42297
:0300000002066095
:0C066000787FE4F6D8FD75812002058942
:0E03B000C3E49FFFE49EFEE49DFDE49CFC225E
:1003BE00E493FC740193FD740293FE740393FF2285
:1003CE00E493F8740193F9740293FA740393FB2285
:00000001FF
