:06011200010900010801D3
:1000FC00EF1FAA0670011E4A600B7D78EDD39400A9
:05010C0040EE1D80F72C
:0101110022CB
:10008F00E50824FE602114603614604A2403705C76
:10009F00D280D281C282C283D284D2857FD07E07A2
:1000AF001200FC750802227FC87E001200FCB2818C
:1000BF000509E509640A7034E4F50975080322C2DD
:1000CF0080D281D282D283D284C2857FD07E071222
:1000DF0000FC750804227FC87E001200FCB2840564
:0D00EF0009E509B40A06E4F50975080122C7
:0501190012008F80FBC5
:03000000020003F8
:0C000300787FE4F6D8FD75810902004A00
:10000F00020119E493A3F8E493A34003F68001F2ED
:10001F0008DFF48029E493A3F85407240CC8C333F2
:10002F00C4540F4420C8834004F456800146F6DFC1
:10003F00E4800B0102040810204080900112E47E3E
:10004F00019360BCA3FF543F30E509541FFEE493B6
:10005F00A360010ECF54C025E060A840B8E493A37D
:10006F00FAE493A3F8E493A3C8C582C8CAC583CAA8
:10007F00F0A3C8C582C8CAC583CADFE9DEE780BE60
:0101180000E6
:00000001FF
