:10020900C0F9A4B0999282F880908883C6A1868E9D
:0402190001020408D2
:05025B00120260D2B5A3
:01026000227B
:0A024700D2B612025BC2B6020260DA
:0A025100C2B612025BD2B6020260D0
:0A015F00C2B71202477FA01201A0F0
:10016900D2B512026030B60BE508C394FA50040503
:080179000880F2C2B502026029
:0C022F00C2B7D2B6120260D2B502026063
:1001A000E4FEEF25E0FFC2B512026092B612025BD8
:0E01B0000EBE08EEC2B5120260D2B6020260A8
:10011600C2B5120260D2B6120260E4FED2B5120275
:1001260060EF25E0FDA2B6E4334DFFC2B5120260D2
:040136000EBE08E809
:01013A0022A2
:1001F100AC0712015FAF041201A0120169AF051231
:0802010001A012016902025183
:02018100AD07C8
:1001830012015FAF051201A01201691202477FA19C
:0C0193001201A0120169120116120251A3
:01019F00223D
:0401BE007F0A7E0036
:1001C200EF1FAA0670011E4A600BE4FDEDC394788E
:0501D20050EE0D80F766
:0101D7002205
:10013B00E4FF120181AC071201BE7F01120181ADF8
:10014B0007ECFE7C00E42DF50DEC3EF50C7F0A7EF2
:04015B00000201C2DB
:1001D800E50CFCAB0D1201BEAD04E4FF1201F112F7
:0901E80001BEAD037F010201F12B
:04000300AB07AA0697
:100007007C037DE81200748F087C037DE8AF03AEA4
:10001700021200747E007F64CFCDCFCECCCE12000B
:10002700748F097C007D64AF03AE021200747E00FA
:100037007F0ACFCDCFCECCCE1200748F0AAE02AFDF
:10004700037C007D0A1200748D0BE4FCEC9002190E
:1000570093F5A074082CF8E690020993F5807F05C4
:0C0067007E001201C27590FF0CBC04E08A
:01007300226A
:1000C9002090193090FDC3E50D940FE50C9427504D
:1000D90008050DE50D7002050C1201D820931930A1
:1000E90093FDD3E50D9400E50C94004008E50D154A
:1000F9000D7002150C1201D82096113096FDE50DF0
:0D010900450C6008E4F50CF50D1201D8223C
:10021D0012022F12013BAF0DAE0C1200031200C9DA
:02022D0080F45B
:0300000002023BBE
:0C023B00787FE4F6D8FD75810D02021DED
:10007400BC000BBE0029EF8DF084FFADF022E4CC70
:10008400F875F008EF2FFFEE33FEEC33FCEE9DEC39
:10009400984005FCEE9DFE0FD5F0E9E4CEFD22ED7F
:1000A400F8F5F0EE8420D21CFEADF075F008EF2FC9
:1000B400FFED33FD4007985006D5F0F222C398FDBA
:0500C4000FD5F0EA2257
:00000001FF
