:0C062900C2A1C2A28C80D2A27F017E0080
:10063500EF1FAA0670011E4A600BE4FDEDC3947816
:0506450050EE0D80F7EE
:01064A00228D
:0B06D900C2A0D2A112062FAF80C2A267
:0106E40022F3
:1006A700AC071206D9EF20E7F9C2A0120629C2A2A9
:0106B7002220
:1006B800AC071206D9EF20E7F9D2A0120629C2A288
:0106C800220F
:100605007F381206A71206317F011206A71206319E
:100615007F061206A71206317F0C1206A77F017E00
:040625000002063594
:0A0599008F1A8D1B8B1C8A1D891E12
:1005A300E4F51FE51B7008E51A4480FF1206A7E572
:1005B3001BB40108E51A44C0FF1206A7E4F51FABFC
:1005C3001CAA1DA91E851F827583001202BEFF127D
:0B05D30006B8051FE51FC3941040E4AC
:0105DE0022FA
:10064B00202043757272656E742054656D703A206C
:10065B00202020202020202020202020202020208F
:0A0394008E1A8F1B8B1C8A1D891E18
:10039E00C3E51A648094805016742D1202EBAE1AC7
:1003AE00AF1B7CFF7DFF12031F8E238F248011ABAA
:1003BE001CAA1DA91E74201202EB851A23851B246C
:1003CE00AE23AF247C037DE81203318F22AE23AF20
:1003DE00247C037DE81203317E007F64CFCDCFCE27
:1003EE00CCCE1203318F21AE23AF247C007D64125C
:1003FE0003317E007F0ACFCDCFCECCCE1203318F0C
:10040E0020AE23AF247C007D0A1203318D1FE5221E
:10041E002430AB1CAA1DA91E9000011202FDE5217D
:10042E0024309000021202FDE520243090000312C9
:10043E0002FD900004742E1202FDE51F2430900080
:10044E00051202FD90000674DF1202FD9000077483
:10045E00431202FDE522700EAB1CAA1DA91E9000D0
:10046E000174201202FDE5227012E521700EAB1C04
:0C047E00AA1DA91E90000274201202FDAD
:01048A00224F
:10055100780A7C007D007BFF7A06795B7E007F1044
:100561001202981206057BFF7A06794BE4FDFF1211
:10057100059912048B8E088F097B007A00790E127F
:1005810003947B007A00790A7D01E4FF1205997FCB
:08059100647E0012063580DAD9
:0606C900D2B37F087E00A1
:0A06CF00EF1F70011E144E70F72299
:10066B001206C9C2B37F5A7E001206CF1206C9A268
:0F067B00B3E433FD7F647E001206CFD2B3AF0528
:01068A00224D
:1005DF00E4FDD2B300FCC2B3EDC313FDD2B30000F0
:1005EF0030B3034305807F1E7E001206CFD2B30CBB
:0505FF00BC08E3AF059C
:0106040022D3
:02068B00AD07B9
:10068D00E4FBC2B3ED1392B37F057E001206CFD209
:09069D00B3EDC313FD0BBB08E92A
:0106A6002231
:10048B0012066BBF01069007D002054C7FCC1206FB
:10049B008B7F4412068B7F647E001206CF12066B95
:1004AB007FCC12068B7FBE12068B1205DF8F1E12BE
:1004BB0005DF8F1FE51F5480604C631FFF631EFF1A
:1004CB00E51FFE7C00E4251EFFEC3ECF2401FDE47E
:1004DB003FFCE412010EE4FBFA7980783D12000335
:1004EB008F1D8E1C8D1B8C1AE4FFFE7D207C41AB77
:1004FB001DAA1CA91BA81A1200031201477CFF7D21
:10050B00FF12031F8037E51FFE7C00E4251EFDEC68
:10051B003EFCE412010EE4FBFA7980783D120003F5
:10052B008F1D8E1C8D1B8C1AE4FFFE7D207C41AB36
:10053B001DAA1CA91BA81A1200031201478E838F38
:05054B0082AF82AE83C7
:010550002288
:10000300EC4D6011E8497017ED33EC3304600DE4F7
:10001300FCFFFEFD22E933E8330470F80201B3125A
:10002300017E58046009E4CC24815006285009025B
:1000330001BD2840030201BAC0E0EB4A7044B98015
:1000430006D0E0FB0201A9EF4E701CBD8008EBFF58
:10005300EAFEE9FD80EBE98DF0A4FEE5F00200EC99
:10006300E9CDF9EAFEEBFFEF89F0A4FCE5F0CE89D8
:10007300F0A42EFFE435F0CD89F0A42DFEE435F095
:100083008067EF4E7005BD80D780C3EF8BF0A4ACC3
:10009300F0EE8BF0A42CFCE435F0F8EF8AF0A42CFE
:1000A300E5F038FCE433CB8DF0A42CFCE5F03BF811
:1000B300EE8AF0A42CFCE5F038F8E433CF89F0A401
:1000C3002CFCE5F038CF3400CE89F0A42FFFE5F007
:1000D3003EFEE433C98DF0A42EFEE5F039CD8AF05F
:1000E300A42FFFE5F03EFEE43DFD33D0E0FB5007D7
:1000F3000BBB000F0201BDEC2CFCEF33FFEE33FE14
:06010300ED33FD02019541
:1001090075F020800E75F010800575F0087D007E71
:10011900007F003392D530D503120386EC334010AB
:10012900EF33FFEE33FEED33FDEC33FCD5F0ED227A
:0E013900E5F0247EA2D513CC92E7CDCEFF22B6
:10014700EDD2E7CD33EC3392D524814006E4FFFEB0
:10015700FDFC22FCE4CFCECDCC24E0501174FF800F
:10016700EDC3CC13CCCD13CDCE13CECF13CF0470AC
:07017700F030D5DE02038623
:10017E00E9D2E7C933E833F892D5EDD2E7CD33ECC7
:07018E0033FC5002B2D52240
:10019500EC30E7100FBF000C0EBE00080DBD0004CB
:1001A5000BEB6014A2D5EB13FCED92E7FD2274FF77
:1001B500FCFDFEFF22E480F8A2D574FF13FC7D80D0
:0301C500E480EFE4
:030000000206E510
:0C06E500787FE4F6D8FD758124020551F1
:1001C800E709F608DFFA8046E709F208DFFA803E19
:1001D80088828C83E709F0A3DFFA8032E309F60806
:1001E800DFFA8078E309F208DFFA807088828C836E
:1001F800E309F0A3DFFA806489828A83E0A3F60822
:10020800DFFA805889828A83E0A3F208DFFA804CFB
:1002180080D280FA80C680D4806980F280338010D2
:1002280080A680EA809A80A880DA80E280CA80333B
:1002380089828A83ECFAE493A3C8C582C8CCC583B3
:10024800CCF0A3C8C582C8CCC583CCDFE9DEE78083
:100258000D89828A83E493A3F608DFF9ECFAA9F002
:10026800EDFB2289828A83ECFAE0A3C8C582C8CC58
:10027800C583CCF0A3C8C582C8CCC583CCDFEADE71
:10028800E880DB89828A83E493A3F208DFF980CCD3
:1002980088F0EF60010E4E60C388F0ED2402B404CC
:1002A8000050B9F582EB2402B4040050AF23234573
:0602B8008223900218737E
:1002BE00BB010CE58229F582E5833AF583E02250F5
:1002CE0006E92582F8E622BBFE06E92582F8E2223F
:0D02DE00E58229F582E5833AF583E4932259
:1002EB00BB010689828A83F0225002F722BBFE01F2
:0202FB00F322EC
:1002FD00F8BB010DE58229F582E5833AF583E8F037
:10030D00225006E92582C8F622BBFE05E92582C8E2
:02031D00F222CA
:10031F00EF8DF0A4A8F0CF8CF0A428CE8DF0A42EF2
:02032F00FE22AC
:10033100BC000BBE0029EF8DF084FFADF022E4CCB0
:10034100F875F008EF2FFFEE33FEEC33FCEE9DEC79
:10035100984005FCEE9DFE0FD5F0E9E4CEFD22EDBF
:10036100F8F5F0EE8420D21CFEADF075F008EF2F09
:10037100FFED33FD4007985006D5F0F222C398FDFA
:050381000FD5F0EA2297
:0E038600C3E49FFFE49EFEE49DFDE49CFC2288
:00000001FF
