:10000600808386898D909396999C9FA2A5A8ABAE76
:10001600B1B4B7BABCBFC2C5C7CACCCFD1D4D6D883
:10002600DADDDFE1E3E5E7E9EAECEEEFF1F2F4F53C
:10003600F6F7F8F9FAFBFCFDFDFEFFFFFFFFFFFFF9
:10004600FFFFFFFFFFFFFEFDFDFCFBFAF9F8F7F6E9
:10005600F5F4F2F1EFEEECEAE9E7E5E3E1DFDDDA0C
:10006600D8D6D4D1CFCCCAC7C5C2BFBCBAB7B4B133
:10007600AEABA8A5A29F9C999693908D8986838006
:100086007C7976726F6C696663605D5A5755514E1E
:100096004C484543403D3A393533302E2B292725E8
:1000A60022201E1C1A1816151311100E0D0B0A0904
:1000B6000807060504030202020100000000000012
:1000C6000000000000010202030405060708090AF1
:1000D6000B0C0D0E1011131516181A1C1E202225B6
:1000E60027292B2E303336383A3D404345484C4E6F
:1000F6005155575A5D606366696C6F7276797C807C
:10018C00EF1FAA0670011E4A600BE4FDEDC3940C30
:05019C0050EE0D80F79C
:0101A100223B
:1001B800907FFFE4F07F14FE12018C74FFF07F142F
:0501C8007E0002018C25
:1001CD007FFFEFD39400400AAE071F907FFFEEF044
:0201DD0080F0B0
:0101DF0022FD
:10016900E4FFEFC394FF500AAE070F907FFFEEF054
:1001790080F0EFD39400400AAE071F907FFFEEF0A6
:0201890080F004
:01018B002251
:100139007C96ECD39400400AAF041C907FFFEFF04B
:1001490080F07F1E7E0012018CECC39496500AAF9A
:10015900040C907FFFEFF080F07F1E7E0002018C7F
:1001A200E4FFC374809481500CEF90000693907F1B
:0501B200FFF00F80EDDD
:0101B7002225
:10010600E4F508D288D2AFD2A8E508B401031201FB
:10011600B8E508B402031201CDE508B403031201E1
:1001260069E508B40403120139E508B405DB1201D8
:03013600A280D6CE
:030003000201E017
:1001E000C0E0C0D00508E508B40603750801D0D00A
:0301F000D0E0322A
:030000000201F307
:0C01F300787FE4F6D8FD75810802010653
:00000001FF
