:03000000020800F3
:0C080000787FE4F6D8FD758109020847F6
:1008BF000103070F1F3F7FFFFEFCF8F0E0C0800031
:1008CF00FF00FEFDFBF7EFDFBF7FBFDFEFF7FBFDA5
:0408DF00FE00FF0018
:0308FF00010800ED
:1008E300E4F509E5099008BF93F590758910758DB6
:0C08F3003C758BB0D2AFD2ABD28E80FE31
:03001B0002088C4C
:08088C00C0E0C083C082C0D0AF
:10089400758D3C758BB00508E508B4051575080021
:1008A4000509E509B42403750900E5099008BF9317
:0208B400F590BD
:0908B600D0D0D082D083D0E03212
:10080C000208E3E493A3F8E493A34003F68001F217
:10081C0008DFF48029E493A3F85407240CC8C333ED
:10082C00C4540F4420C8834004F456800146F6DFBC
:10083C00E4800B01020408102040809008FFE47E45
:10084C00019360BCA3FF543F30E509541FFEE493B1
:10085C00A360010ECF54C025E060A840B8E493A378
:10086C00FAE493A3F8E493A3C8C582C8CAC583CAA3
:10087C00F0A3C8C582C8CAC583CADFE9DEE780BE5B
:0109020000F4
:00000001FF
