:0A00BD00C280D281D28275080122B0
:0A00C700D280C281D28275080222A5
:0A00D100D280D281C282E4F5082239
:1000550020B00630B0FD1200BD20B10630B1FD1252
:1000650000C720B20630B2FD1200D120B30C30B368
:10007500FDE50AC3940A5002050A20B40C30B4FD0C
:0A008500E50AD394014002150A2297
:10008F00D280D281C282E4F508750A05F509758917
:10009F0002758C9C758A9CD2AFD2A9D28C12005556
:0200AF0080FBD4
:03000B0002000EE2
:10000E00C0E0C0D00509E509D39409400375090085
:10001E00E50814600D14601B24027026D290D29154
:10002E008020C290E509C3950A5004D2918013C274
:10003E0091800FC291E509C3950A5004D2908002B7
:07004E00C290D0D0D0E032D7
:030000000200B14A
:0C00B100787FE4F6D8FD75810A02008F0C
:00000001FF
