:10055300536F6D656F6E65206B6E6F636B696E674E
:1005630000202020202020202020202020202020A8
:10057300200053797374656D205374617274696ECE
:10058300672000506C6561736520776169742E2064
:100593002020200000E2E5E8E9ECEEF0F1F2F5F6C8
:1005A300F7F800040D0A140308060217051A0104DC
:1005B30003010203010102030103040503040554BB
:1005C300656D707572653A0000000000000000560A
:0F05D3006973746F72733A00000000000000003B
:0A039F008E288F298B2A8A2B892CC7
:1003A900C3E528648094805016742D1202F6AE2895
:1003B900AF297CFF7DFF12032A8E318F328011AB6A
:1003C9002AAA2BA92C74201202F6852831852932F4
:1003D900AE31AF327C037DE812033C8F30AE31AFD2
:1003E900327C037DE812033C7E007F64CFCDCFCE03
:1003F900CCCE12033C8F2FAE31AF327C007D64121C
:10040900033C7E007F0ACFCDCFCECCCE12033C8FEA
:100419002EAE31AF327C007D0A12033C8D2DE530C2
:100429002430AB2AAA2BA92C900001120308E52F2E
:100439002430900002120308E52E243090000312A4
:100449000308900004742E120308E52D243090004F
:100459000512030890000674DF1203089000077460
:1004690043120308E530700EAB2AAA2BA92C900081
:10047900017420120308E5307012E52F700EAB2AC3
:0C048900AA2BA92C90000274201203087A
:010495002244
:10073400AF33EF75F00A84F528EF75F00A8485F07D
:100744002974201202F6E5282430900001120308CF
:10075400E5292430900002120308E528700890006F
:06076400017420120308DD
:01076A00226C
:1005E20020A75D30A7FDAF330533EFD394634003FB
:1005F200E4F533D28CE4F508E4F509308C327BFF64
:100602007A0579537D01E4FF1206EEE5099005B4FF
:1006120093F5347F2C7E011207E37BFF7A05796420
:100622007D01E4FF1206EE0509E509C3940E40CBF5
:100632000508E508C3940240BFC28C30B702C2B7B6
:010642002295
:1007B5001204968E358F36E5364535700712049648
:1007C5008E358F36E536453570071204968E358F92
:0207D5003622CA
:1006990078087C007D007BFF7A0579C27E007F1097
:1006A9001202A378187C007D007BFF7A0579D27E3F
:1006B900007F101202A37B007A007910AF36AE35A5
:1006C90012039F7B007A007908E4FDFF1206EE7B96
:1006D900007A007920AF331207347A0079187D0146
:0506E900E4FF0206EE33
:10064300C2B775A882E4F589D2A8D288C28CF533E3
:100653001207917BFF7A057975E4FDFF1206EE7BA5
:10066300FF7A0579867D01E4FF1206EE1207F9127F
:1006730004968E358F361204968E358F367FB87E6C
:100683000B1207E31205E21207B51206997F647E87
:06069300001207E380EEF7
:03000B00020819CF
:10081900C0E0C083C082B2B7E53490059793F58CE8
:0F082900E5349005A593F58AD082D083D0E032D4
:030003000208549C
:10085400C0E0308C02C28CE5336003753300D0E015
:010864003261
:0C07D700C2A1C2A28C80D2A27F017E00D1
:1007E300EF1FAA0670011E4A600BE4FDEDC3947867
:0507F30050EE0D80F73F
:0107F80022DE
:0B089700C2A0D2A11207DDAF80C2A2F8
:0108A2002233
:10086500AC07120897EF20E7F9C2A01207D7C2A27A
:010875002260
:10087600AC07120897EF20E7F9D2A01207D7C2A259
:01088600224F
:100791007F381208651207DF7F011208651207DF33
:1007A1007F061208651207DF7F0C1208657F017E44
:0407B100000207E358
:0A06EE008F288D298B2A8A2B892C76
:1006F800E4F52DE5297008E5284480FF120865E532
:1007080029B40108E52844C0FF120865E4F52DABBB
:100718002AAA2BA92C852D827583001202C9FF12E3
:0B0728000876052DE52DC3941040E479
:0107330022A3
:06088700D2A37F087E00F1
:0A088D00EF1F70011E144E70F722D9
:1007F900120887C2A37F5A7E0012088D120887A2A9
:0F080900A3E433FD7F647E0012088DD2A3AF05F8
:0108180022BD
:10076B00E4FDD2A300FCC2A3EDC313FDD2A3000092
:10077B0030A3034305807F1E7E0012088DD2A30C8D
:05078B00BC08E3AF050E
:010790002246
:02083800AD070A
:10083A00E4FBC2A3ED1392A37F057E0012088DD2BA
:09084A00A3EDC313FD0BBB08E98B
:010853002282
:100496001207F97FCC1208387F441208381207F980
:1004A6007FCC1208387FBE12083812076B8F0E12E7
:1004B600076B8F0F7F647E0012088DE50F548060F6
:1004C6004C630FFF630EFFE50FFE7C00E4250EFF75
:1004D600EC3ECF2401FDE43FFCE4120119E4FBFAF3
:1004E6007980783D12000E8F0D8E0C8D0B8C0AE4F0
:1004F600FFFE7D207C41AB0DAA0CA90BA80A1200B9
:100506000E1201527CFF7DFF12032A8037E50FFE93
:100516007C00E4250EFDEC3EFCE4120119E4FBFA36
:100526007980783D12000E8F0D8E0C8D0B8C0AE4AF
:10053600FFFE7D207C41AB0DAA0CA90BA80A120078
:0C0546000E1201528E088F09AE08AF099A
:010552002286
:10000E00EC4D6011E8497017ED33EC3304600DE4EC
:10001E00FCFFFEFD22E933E8330470F80201BE1244
:10002E00018958046009E4CC248150062850090245
:10003E0001C82840030201C5C0E0EB4A7044B980F4
:10004E0006D0E0FB0201B4EF4E701CBD8008EBFF42
:10005E00EAFEE9FD80EBE98DF0A4FEE5F00200F783
:10006E00E9CDF9EAFEEBFFEF89F0A4FCE5F0CE89CD
:10007E00F0A42EFFE435F0CD89F0A42DFEE435F08A
:10008E008067EF4E7005BD80D780C3EF8BF0A4ACB8
:10009E00F0EE8BF0A42CFCE435F0F8EF8AF0A42CF3
:1000AE00E5F038FCE433CB8DF0A42CFCE5F03BF806
:1000BE00EE8AF0A42CFCE5F038F8E433CF89F0A4F6
:1000CE002CFCE5F038CF3400CE89F0A42FFFE5F0FC
:1000DE003EFEE433C98DF0A42EFEE5F039CD8AF054
:1000EE00A42FFFE5F03EFEE43DFD33D0E0FB5007CC
:1000FE000BBB000F0201C8EC2CFCEF33FFEE33FEFE
:06010E00ED33FD0201A02B
:1001140075F020800E75F010800575F0087D007E66
:10012400007F003392D530D503120391EC33401095
:10013400EF33FFEE33FEED33FDEC33FCD5F0ED226F
:0E014400E5F0247EA2D513CC92E7CDCEFF22AB
:10015200EDD2E7CD33EC3392D524814006E4FFFEA5
:10016200FDFC22FCE4CFCECDCC24E0501174FF8004
:10017200EDC3CC13CCCD13CDCE13CECF13CF0470A1
:07018200F030D5DE0203910D
:10018900E9D2E7C933E833F892D5EDD2E7CD33ECBC
:0701990033FC5002B2D52235
:1001A000EC30E7100FBF000C0EBE00080DBD0004C0
:1001B0000BEB6014A2D5EB13FCED92E7FD2274FF6C
:1001C000FCFDFEFF22E480F8A2D574FF13FC7D80C5
:0301D000E480EFD9
:030000000208A350
:0C08A300787FE4F6D8FD7581360206432C
:1001D300E709F608DFFA8046E709F208DFFA803E0E
:1001E30088828C83E709F0A3DFFA8032E309F608FB
:1001F300DFFA8078E309F208DFFA807088828C8363
:10020300E309F0A3DFFA806489828A83E0A3F60816
:10021300DFFA805889828A83E0A3F208DFFA804CF0
:1002230080D280FA80C680D4806980F280338010C7
:1002330080A680EA809A80A880DA80E280CA803330
:1002430089828A83ECFAE493A3C8C582C8CCC583A8
:10025300CCF0A3C8C582C8CCC583CCDFE9DEE78078
:100263000D89828A83E493A3F608DFF9ECFAA9F0F7
:10027300EDFB2289828A83ECFAE0A3C8C582C8CC4D
:10028300C583CCF0A3C8C582C8CCC583CCDFEADE66
:10029300E880DB89828A83E493A3F208DFF980CCC8
:1002A30088F0EF60010E4E60C388F0ED2402B404C1
:1002B3000050B9F582EB2402B4040050AF23234568
:0602C30082239002237368
:1002C900BB010CE58229F582E5833AF583E02250EA
:1002D90006E92582F8E622BBFE06E92582F8E22234
:0D02E900E58229F582E5833AF583E493224E
:1002F600BB010689828A83F0225002F722BBFE01E7
:02030600F322E0
:10030800F8BB010DE58229F582E5833AF583E8F02B
:10031800225006E92582C8F622BBFE05E92582C8D7
:02032800F222BF
:10032A00EF8DF0A4A8F0CF8CF0A428CE8DF0A42EE7
:02033A00FE22A1
:10033C00BC000BBE0029EF8DF084FFADF022E4CCA5
:10034C00F875F008EF2FFFEE33FEEC33FCEE9DEC6E
:10035C00984005FCEE9DFE0FD5F0E9E4CEFD22EDB4
:10036C00F8F5F0EE8420D21CFEADF075F008EF2FFE
:10037C00FFED33FD4007985006D5F0F222C398FDEF
:05038C000FD5F0EA228C
:0E039100C3E49FFFE49EFEE49DFDE49CFC227D
:00000001FF
