:0A03E6003F065B4F666D7D077F6FD9
:0703BD0093F5807F037E0031
:1003C400EF1FAA0670011E4A600BE4FDEDC394788A
:0503D40050EE0D80F762
:0103D9002201
:02033F00AD0708
:10034100E4F50CF50DD2B5C2B6C2B5FBD2B3E50DDD
:1003510025E0F50DE50C33F50CA2B3E433420D7441
:10036100807E00A803088006CEA2E713CE13D8F83A
:10037100FFEDF582EF558224FF92B4D2B60000C2A0
:09038100B60BBB0CC7AE0CAF0DAE
:01038A002250
:10038B007F3012033F8E088F09AC08AD09EC1201C8
:10039B00AE7B007A40799C7845120003E4FBFA7936
:1003AB0080784512010C1201E78E0A8F0B1202CBDB
:0203BB0080CEF2
:0402CB00AB07AA06CD
:1002CF007C037DE81202688F0C7C007D64AF03AE67
:1002DF00021202687C007D0A1202688D0D7C007D7F
:1002EF0064AF03AE021202687E007F0ACFCDCFCE7D
:1002FF00CCCE1202688F0EAE02AF037C007D0A12C5
:10030F0002688D0F75A0F7E50F9003E61203BD7518
:10031F00A0FBE50E1203BD75A0FDE50D1203BD7523
:10032F00A0FEE50C93F580D2877F037E000203C405
:10000300EC4D6011E8497017ED33EC3304600DE4F7
:10001300FCFFFEFD22E933E8330470F802025312B9
:10002300021E58046009E4CC2481500628500902BA
:10003300025D28400302025AC0E0EB4A7044B980D3
:1000430006D0E0FB020249EF4E701CBD8008EBFFB7
:10005300EAFEE9FD80EBE98DF0A4FEE5F00200EC99
:10006300E9CDF9EAFEEBFFEF89F0A4FCE5F0CE89D8
:10007300F0A42EFFE435F0CD89F0A42DFEE435F095
:100083008067EF4E7005BD80D780C3EF8BF0A4ACC3
:10009300F0EE8BF0A42CFCE435F0F8EF8AF0A42CFE
:1000A300E5F038FCE433CB8DF0A42CFCE5F03BF811
:1000B300EE8AF0A42CFCE5F038F8E433CF89F0A401
:1000C3002CFCE5F038CF3400CE89F0A42FFFE5F007
:1000D3003EFEE433C98DF0A42EFEE5F039CD8AF05F
:1000E300A42FFFE5F03EFEE43DFD33D0E0FB5007D7
:1000F3000BBB000F02025DEC2CFCEF33FFEE33FE73
:06010300ED33FD020235A0
:1001090002025DEC5D046005E859047003020253C4
:1001190012021E580460F6EC4860F2EC7004FDFE11
:10012900FF22C860DB2481C85009C39860025006C9
:1001390002025A9850CAF582E9294B4A7005AB82E6
:1001490002024975F0007C1A7880C3EF9BEE9AEDA4
:1001590099400DC3EF9BFFEE9AFEED99FDE842F041
:10016900DC23ACF0D0E0FFD0E0FED0E0FDAB822094
:10017900E7101BEB60BAEC2CFCEF33FFEE33FEED1E
:1001890033FD020235E803F830E705C0F075F000E9
:10019900EF2FFFEE33FEED33FD40B830E7C280AA02
:1001A90075F020800E75F010800575F0087D007ED1
:1001B900007F003392D530D5031202BDEC334010D5
:1001C900EF33FFEE33FEED33FDEC33FCD5F0ED22DA
:0E01D900E5F0247EA2D513CC92E7CDCEFF2216
:1001E700EDD2E7CD33EC3392D524814006E4FFFE10
:1001F700FDFC22FCE4CFCECDCC24E0501174FF806F
:10020700EDC3CC13CCCD13CDCE13CECF13CF04700B
:07021700F030D5DE0202BD4C
:10021E00E9D2E7C933E833F892D5EDD2E7CD33EC26
:07022E0033FC5002B2D5229F
:10023500EC30E7100FBF000C0EBE00080DBD00042A
:100245000BEB6014A2D5EB13FCED92E7FD2274FFD6
:10025500FCFDFEFF22E480F8A2D574FF13FC7D802F
:03026500E480EF43
:030000000203DA1E
:0C03DA00787FE4F6D8FD75810F02038BDC
:10026800BC000BBE0029EF8DF084FFADF022E4CC7A
:10027800F875F008EF2FFFEE33FEEC33FCEE9DEC43
:10028800984005FCEE9DFE0FD5F0E9E4CEFD22ED89
:10029800F8F5F0EE8420D21CFEADF075F008EF2FD3
:1002A800FFED33FD4007985006D5F0F222C398FDC4
:0502B8000FD5F0EA2261
:0E02BD00C3E49FFFE49EFEE49DFDE49CFC2252
:00000001FF
