:10007E00C0F9A4B0999282F880908883C6A1868E2A
:04008E00010204085F
:10006800EF1FAA0670011E4A600BE4FDEDC39478E9
:0500780050EE0D80F7C1
:01007D002260
:10000E00E4F508F509758901D2AFD2A9758C3C7556
:10001E008AB0D28CE4FCEC90008E93F5A0E5092C0E
:10002E0090007E93F5807F057E001200680CBC0464
:03003E00E580E179
:03000B00020041AF
:10004100C0E0C0D0C28C758C3C758AB00508E5084B
:10005100B4140D7508000509E509B40D037509000F
:07006100D28CD0D0D0E032B8
:0300000002009269
:0C009200787FE4F6D8FD75810902000EAD
:00000001FF
