:10021700C0F9A4B0999282F880908883C6A1868E8F
:0402270001020408C4
:03000300010C00ED
:10020100EF1FAA0670011E4A600BE4FDEDC394784E
:0502110050EE0D80F726
:0102160022C5
:04009A00AB07AA0600
:10009E007C037DE812010B8F087C037DE8AF03AE75
:1000AE000212010B7E007F64CFCDCFCECCCE1201DB
:1000BE000B8F097C007D64AF03AE0212010B7E0034
:1000CE007F0ACFCDCFCECCCE12010B8F0AAE02AFB0
:1000DE00037C007D0A12010B8D0BE4FCEC900227D1
:1000EE0093F5A074082CF8E690021793F5807F051F
:0C00FE007E001202017590FF0CBC04E0B3
:01010A0022D2
:1001600020901D3090FDC28CD2B1D3E50E940FE5E6
:100170000D9427500B740A250EF50EE4350DF50D80
:1001800020931A3093FDC28CD2B1D3E50E940FE5C3
:100190000D94275008050EE50E7002050D209610EF
:1001A0003096FDE50E450D7005C28CD2B122D28C81
:0101B000222C
:1001E100E4F50DF50ED2B1758901758C3C758AB0B7
:1001F100D2AFD2A9AF0EAE0D12009A12016080F4F7
:03000B000201B13E
:0401B100C0E0C0D01A
:1001B500758C3C758AB0050CE50CB4141AD3E50EA4
:1001C5009400E50D9400400DE50E150E7002150D19
:0701D500750C008002C2B1AD
:0501DC00D0D0D0E0329C
:0300000002000EED
:0C000E00787FE4F6D8FD75810E020055E5
:10010B00BC000BBE0029EF8DF084FFADF022E4CCD8
:10011B00F875F008EF2FFFEE33FEEC33FCEE9DECA1
:10012B00984005FCEE9DFE0FD5F0E9E4CEFD22EDE7
:10013B00F8F5F0EE8420D21CFEADF075F008EF2F31
:10014B00FFED33FD4007985006D5F0F222C398FD22
:05015B000FD5F0EA22BF
:10001A000201E1E493A3F8E493A34003F68001F21A
:10002A0008DFF48029E493A3F85407240CC8C333E7
:10003A00C4540F4420C8834004F456800146F6DFB6
:10004A00E4800B0102040810204080900003E47E43
:10005A00019360BCA3FF543F30E509541FFEE493AB
:10006A00A360010ECF54C025E060A840B8E493A372
:10007A00FAE493A3F8E493A3C8C582C8CAC583CA9D
:10008A00F0A3C8C582C8CAC583CADFE9DEE780BE55
:0100060000F9
:00000001FF
